{
  "_format": "hh-sol-artifact-1",
  "contractName": "Insurance",
  "sourceName": "contracts/Insurance.sol",
  "abi": [
    {
      "inputs": [],
      "stateMutability": "nonpayable",
      "type": "constructor"
    },
    {
      "anonymous": false,
      "inputs": [
        {
          "indexed": true,
          "internalType": "address",
          "name": "previousOwner",
          "type": "address"
        },
        {
          "indexed": true,
          "internalType": "address",
          "name": "newOwner",
          "type": "address"
        }
      ],
      "name": "OwnershipTransferred",
      "type": "event"
    },
    {
      "inputs": [
        {
          "internalType": "string",
          "name": "health_id",
          "type": "string"
        }
      ],
      "name": "buy",
      "outputs": [],
      "stateMutability": "payable",
      "type": "function"
    },
    {
      "inputs": [
        {
          "internalType": "string",
          "name": "health_id",
          "type": "string"
        }
      ],
      "name": "checkHospitalised",
      "outputs": [
        {
          "internalType": "uint256",
          "name": "",
          "type": "uint256"
        }
      ],
      "stateMutability": "view",
      "type": "function"
    },
    {
      "inputs": [
        {
          "internalType": "uint256",
          "name": "age",
          "type": "uint256"
        },
        {
          "internalType": "string",
          "name": "healthID",
          "type": "string"
        }
      ],
      "name": "generateQuote",
      "outputs": [],
      "stateMutability": "nonpayable",
      "type": "function"
    },
    {
      "inputs": [],
      "name": "getPolicy",
      "outputs": [
        {
          "internalType": "uint256",
          "name": "",
          "type": "uint256"
        }
      ],
      "stateMutability": "view",
      "type": "function"
    },
    {
      "inputs": [
        {
          "internalType": "uint256",
          "name": "age",
          "type": "uint256"
        }
      ],
      "name": "getPrice",
      "outputs": [
        {
          "internalType": "uint256",
          "name": "",
          "type": "uint256"
        }
      ],
      "stateMutability": "pure",
      "type": "function"
    },
    {
      "inputs": [
        {
          "internalType": "string",
          "name": "h",
          "type": "string"
        }
      ],
      "name": "getPricing",
      "outputs": [
        {
          "internalType": "uint256",
          "name": "",
          "type": "uint256"
        }
      ],
      "stateMutability": "view",
      "type": "function"
    },
    {
      "inputs": [
        {
          "internalType": "string",
          "name": "id",
          "type": "string"
        }
      ],
      "name": "hospitalised",
      "outputs": [],
      "stateMutability": "nonpayable",
      "type": "function"
    },
    {
      "inputs": [],
      "name": "owner",
      "outputs": [
        {
          "internalType": "address",
          "name": "",
          "type": "address"
        }
      ],
      "stateMutability": "view",
      "type": "function"
    },
    {
      "inputs": [],
      "name": "renounceOwnership",
      "outputs": [],
      "stateMutability": "nonpayable",
      "type": "function"
    },
    {
      "inputs": [
        {
          "internalType": "address",
          "name": "newOwner",
          "type": "address"
        }
      ],
      "name": "transferOwnership",
      "outputs": [],
      "stateMutability": "nonpayable",
      "type": "function"
    }
  ],
  "bytecode": "0x6080604052620186a060065534801561001757600080fd5b5061003461002961007a60201b60201c565b61008260201b60201c565b33600160006101000a81548173ffffffffffffffffffffffffffffffffffffffff021916908373ffffffffffffffffffffffffffffffffffffffff160217905550610146565b600033905090565b60008060009054906101000a900473ffffffffffffffffffffffffffffffffffffffff169050816000806101000a81548173ffffffffffffffffffffffffffffffffffffffff021916908373ffffffffffffffffffffffffffffffffffffffff1602179055508173ffffffffffffffffffffffffffffffffffffffff168173ffffffffffffffffffffffffffffffffffffffff167f8be0079c531659141344cd1fd0a4f28419497f9722a3daafe3b4186f6b6457e060405160405180910390a35050565b610c84806101556000396000f3fe6080604052600436106100915760003560e01c80639d40b110116100595780639d40b1101461015a578063ce1e462614610183578063d81150ad146101ae578063e7572230146101eb578063f2fde38b1461022857610091565b806310a74dd014610096578063492cc769146100bf578063715018a6146100db5780637794fb1b146100f25780638da5cb5b1461012f575b600080fd5b3480156100a257600080fd5b506100bd60048036038101906100b891906107e3565b610251565b005b6100d960048036038101906100d491906107e3565b61028a565b005b3480156100e757600080fd5b506100f06102e7565b005b3480156100fe57600080fd5b50610119600480360381019061011491906107e3565b6102fb565b6040516101269190610845565b60405180910390f35b34801561013b57600080fd5b50610144610323565b60405161015191906108a1565b60405180910390f35b34801561016657600080fd5b50610181600480360381019061017c91906108e8565b61034c565b005b34801561018f57600080fd5b506101986103af565b6040516101a59190610845565b60405180910390f35b3480156101ba57600080fd5b506101d560048036038101906101d091906107e3565b6103f6565b6040516101e29190610845565b60405180910390f35b3480156101f757600080fd5b50610212600480360381019061020d9190610944565b61041e565b60405161021f9190610845565b60405180910390f35b34801561023457600080fd5b5061024f600480360381019061024a919061099d565b6104bc565b005b60016004826040516102639190610a3b565b908152602001604051809103902060008282546102809190610a81565b9250508190555050565b6006600081548092919061029d90610ab5565b91905055600260003373ffffffffffffffffffffffffffffffffffffffff1673ffffffffffffffffffffffffffffffffffffffff1681526020019081526020016000208190555050565b6102ef61053f565b6102f960006105bd565b565b600060038260405161030d9190610a3b565b9081526020016040518091039020549050919050565b60008060009054906101000a900473ffffffffffffffffffffffffffffffffffffffff16905090565b61035581610251565b6000610360826103f6565b9050600061036d8461041e565b600a8361037a9190610afd565b6103849190610a81565b9050806003846040516103979190610a3b565b90815260200160405180910390208190555050505050565b6000600260003373ffffffffffffffffffffffffffffffffffffffff1673ffffffffffffffffffffffffffffffffffffffff16815260200190815260200160002054905090565b60006004826040516104089190610a3b565b9081526020016040518091039020549050919050565b6000601282101561043257606490506104b7565b60128210158015610444575060198211155b1561045257609690506104b7565b601982118015610463575060238211155b156104715760c890506104b7565b602382118015610482575060378211155b156104915761012c90506104b7565b6037821180156104a2575060468211155b156104b1576101c290506104b7565b6101f490505b919050565b6104c461053f565b600073ffffffffffffffffffffffffffffffffffffffff168173ffffffffffffffffffffffffffffffffffffffff1603610533576040517f08c379a000000000000000000000000000000000000000000000000000000000815260040161052a90610bc2565b60405180910390fd5b61053c816105bd565b50565b610547610681565b73ffffffffffffffffffffffffffffffffffffffff16610565610323565b73ffffffffffffffffffffffffffffffffffffffff16146105bb576040517f08c379a00000000000000000000000000000000000000000000000000000000081526004016105b290610c2e565b60405180910390fd5b565b60008060009054906101000a900473ffffffffffffffffffffffffffffffffffffffff169050816000806101000a81548173ffffffffffffffffffffffffffffffffffffffff021916908373ffffffffffffffffffffffffffffffffffffffff1602179055508173ffffffffffffffffffffffffffffffffffffffff168173ffffffffffffffffffffffffffffffffffffffff167f8be0079c531659141344cd1fd0a4f28419497f9722a3daafe3b4186f6b6457e060405160405180910390a35050565b600033905090565b6000604051905090565b600080fd5b600080fd5b600080fd5b600080fd5b6000601f19601f8301169050919050565b7f4e487b7100000000000000000000000000000000000000000000000000000000600052604160045260246000fd5b6106f0826106a7565b810181811067ffffffffffffffff8211171561070f5761070e6106b8565b5b80604052505050565b6000610722610689565b905061072e82826106e7565b919050565b600067ffffffffffffffff82111561074e5761074d6106b8565b5b610757826106a7565b9050602081019050919050565b82818337600083830152505050565b600061078661078184610733565b610718565b9050828152602081018484840111156107a2576107a16106a2565b5b6107ad848285610764565b509392505050565b600082601f8301126107ca576107c961069d565b5b81356107da848260208601610773565b91505092915050565b6000602082840312156107f9576107f8610693565b5b600082013567ffffffffffffffff81111561081757610816610698565b5b610823848285016107b5565b91505092915050565b6000819050919050565b61083f8161082c565b82525050565b600060208201905061085a6000830184610836565b92915050565b600073ffffffffffffffffffffffffffffffffffffffff82169050919050565b600061088b82610860565b9050919050565b61089b81610880565b82525050565b60006020820190506108b66000830184610892565b92915050565b6108c58161082c565b81146108d057600080fd5b50565b6000813590506108e2816108bc565b92915050565b600080604083850312156108ff576108fe610693565b5b600061090d858286016108d3565b925050602083013567ffffffffffffffff81111561092e5761092d610698565b5b61093a858286016107b5565b9150509250929050565b60006020828403121561095a57610959610693565b5b6000610968848285016108d3565b91505092915050565b61097a81610880565b811461098557600080fd5b50565b60008135905061099781610971565b92915050565b6000602082840312156109b3576109b2610693565b5b60006109c184828501610988565b91505092915050565b600081519050919050565b600081905092915050565b60005b838110156109fe5780820151818401526020810190506109e3565b60008484015250505050565b6000610a15826109ca565b610a1f81856109d5565b9350610a2f8185602086016109e0565b80840191505092915050565b6000610a478284610a0a565b915081905092915050565b7f4e487b7100000000000000000000000000000000000000000000000000000000600052601160045260246000fd5b6000610a8c8261082c565b9150610a978361082c565b9250828201905080821115610aaf57610aae610a52565b5b92915050565b6000610ac08261082c565b91507fffffffffffffffffffffffffffffffffffffffffffffffffffffffffffffffff8203610af257610af1610a52565b5b600182019050919050565b6000610b088261082c565b9150610b138361082c565b9250828202610b218161082c565b91508282048414831517610b3857610b37610a52565b5b5092915050565b600082825260208201905092915050565b7f4f776e61626c653a206e6577206f776e657220697320746865207a65726f206160008201527f6464726573730000000000000000000000000000000000000000000000000000602082015250565b6000610bac602683610b3f565b9150610bb782610b50565b604082019050919050565b60006020820190508181036000830152610bdb81610b9f565b9050919050565b7f4f776e61626c653a2063616c6c6572206973206e6f7420746865206f776e6572600082015250565b6000610c18602083610b3f565b9150610c2382610be2565b602082019050919050565b60006020820190508181036000830152610c4781610c0b565b905091905056fea26469706673582212207ce7c96a021df829feb881b2b3a4bf8550154484503b6592ef93416a325c92a864736f6c63430008120033",
  "linkReferences": {},
  "deployedLinkReferences": {}
}