{
  "_format": "hh-sol-artifact-1",
  "contractName": "Insurance",
  "sourceName": "contracts/Insurance.sol",
  "abi": [
    {
      "inputs": [],
      "stateMutability": "nonpayable",
      "type": "constructor"
    },
    {
      "anonymous": false,
      "inputs": [
        {
          "indexed": true,
          "internalType": "address",
          "name": "previousOwner",
          "type": "address"
        },
        {
          "indexed": true,
          "internalType": "address",
          "name": "newOwner",
          "type": "address"
        }
      ],
      "name": "OwnershipTransferred",
      "type": "event"
    },
    {
      "inputs": [],
      "name": "buy",
      "outputs": [],
      "stateMutability": "payable",
      "type": "function"
    },
    {
      "inputs": [
        {
          "internalType": "uint256",
          "name": "age",
          "type": "uint256"
        }
      ],
      "name": "generateQuote",
      "outputs": [
        {
          "internalType": "uint256",
          "name": "quotation",
          "type": "uint256"
        }
      ],
      "stateMutability": "view",
      "type": "function"
    },
    {
      "inputs": [
        {
          "internalType": "uint256",
          "name": "policy",
          "type": "uint256"
        },
        {
          "internalType": "string",
          "name": "waveID",
          "type": "string"
        }
      ],
      "name": "hospitalised",
      "outputs": [],
      "stateMutability": "nonpayable",
      "type": "function"
    },
    {
      "inputs": [],
      "name": "owner",
      "outputs": [
        {
          "internalType": "address",
          "name": "",
          "type": "address"
        }
      ],
      "stateMutability": "view",
      "type": "function"
    },
    {
      "inputs": [
        {
          "internalType": "uint256",
          "name": "age",
          "type": "uint256"
        }
      ],
      "name": "renewal",
      "outputs": [
        {
          "internalType": "uint256",
          "name": "",
          "type": "uint256"
        }
      ],
      "stateMutability": "view",
      "type": "function"
    },
    {
      "inputs": [],
      "name": "renounceOwnership",
      "outputs": [],
      "stateMutability": "nonpayable",
      "type": "function"
    },
    {
      "inputs": [
        {
          "internalType": "address",
          "name": "newOwner",
          "type": "address"
        }
      ],
      "name": "transferOwnership",
      "outputs": [],
      "stateMutability": "nonpayable",
      "type": "function"
    }
  ],
  "bytecode": "0x608060405234801561001057600080fd5b5061002d61002261007360201b60201c565b61007b60201b60201c565b33600160006101000a81548173ffffffffffffffffffffffffffffffffffffffff021916908373ffffffffffffffffffffffffffffffffffffffff16021790555061013f565b600033905090565b60008060009054906101000a900473ffffffffffffffffffffffffffffffffffffffff169050816000806101000a81548173ffffffffffffffffffffffffffffffffffffffff021916908373ffffffffffffffffffffffffffffffffffffffff1602179055508173ffffffffffffffffffffffffffffffffffffffff168173ffffffffffffffffffffffffffffffffffffffff167f8be0079c531659141344cd1fd0a4f28419497f9722a3daafe3b4186f6b6457e060405160405180910390a35050565b610b0f8061014e6000396000f3fe6080604052600436106100705760003560e01c80639a6329c11161004e5780639a6329c1146100f4578063a6f2ae3a1461011d578063dea0991214610127578063f2fde38b1461016457610070565b80630bdcdd7114610075578063715018a6146100b25780638da5cb5b146100c9575b600080fd5b34801561008157600080fd5b5061009c600480360381019061009791906105ab565b61018d565b6040516100a991906105e7565b60405180910390f35b3480156100be57600080fd5b506100c761023c565b005b3480156100d557600080fd5b506100de610250565b6040516100eb9190610643565b60405180910390f35b34801561010057600080fd5b5061011b600480360381019061011691906107a4565b610279565b005b61012561027d565b005b34801561013357600080fd5b5061014e600480360381019061014991906105ab565b610354565b60405161015b91906105e7565b60405180910390f35b34801561017057600080fd5b5061018b6004803603810190610186919061082c565b610394565b005b6000610197610417565b60128210156101a95760649050610237565b6012821180156101b95750601982105b156101c75760969050610237565b6019821180156101d75750602382105b156101e55760c89050610237565b6023821180156101f55750603782105b156102045761012c9050610237565b6037821180156102145750604682105b15610223576101f49050610237565b6046821115610236576101f49050610237565b5b919050565b610244610417565b61024e6000610495565b565b60008060009054906101000a900473ffffffffffffffffffffffffffffffffffffffff16905090565b5050565b600360003373ffffffffffffffffffffffffffffffffffffffff1673ffffffffffffffffffffffffffffffffffffffff1681526020019081526020016000205434036102fe576040517f08c379a00000000000000000000000000000000000000000000000000000000081526004016102f5906108b6565b60405180910390fd5b3360026000600454815260200190815260200160002060006101000a81548173ffffffffffffffffffffffffffffffffffffffff021916908373ffffffffffffffffffffffffffffffffffffffff160217905550565b6000806103608361018d565b90506000600290506064816103759190610934565b826103809190610965565b8261038b91906109a7565b92505050919050565b61039c610417565b600073ffffffffffffffffffffffffffffffffffffffff168173ffffffffffffffffffffffffffffffffffffffff160361040b576040517f08c379a000000000000000000000000000000000000000000000000000000000815260040161040290610a4d565b60405180910390fd5b61041481610495565b50565b61041f610559565b73ffffffffffffffffffffffffffffffffffffffff1661043d610250565b73ffffffffffffffffffffffffffffffffffffffff1614610493576040517f08c379a000000000000000000000000000000000000000000000000000000000815260040161048a90610ab9565b60405180910390fd5b565b60008060009054906101000a900473ffffffffffffffffffffffffffffffffffffffff169050816000806101000a81548173ffffffffffffffffffffffffffffffffffffffff021916908373ffffffffffffffffffffffffffffffffffffffff1602179055508173ffffffffffffffffffffffffffffffffffffffff168173ffffffffffffffffffffffffffffffffffffffff167f8be0079c531659141344cd1fd0a4f28419497f9722a3daafe3b4186f6b6457e060405160405180910390a35050565b600033905090565b6000604051905090565b600080fd5b600080fd5b6000819050919050565b61058881610575565b811461059357600080fd5b50565b6000813590506105a58161057f565b92915050565b6000602082840312156105c1576105c061056b565b5b60006105cf84828501610596565b91505092915050565b6105e181610575565b82525050565b60006020820190506105fc60008301846105d8565b92915050565b600073ffffffffffffffffffffffffffffffffffffffff82169050919050565b600061062d82610602565b9050919050565b61063d81610622565b82525050565b60006020820190506106586000830184610634565b92915050565b600080fd5b600080fd5b6000601f19601f8301169050919050565b7f4e487b7100000000000000000000000000000000000000000000000000000000600052604160045260246000fd5b6106b182610668565b810181811067ffffffffffffffff821117156106d0576106cf610679565b5b80604052505050565b60006106e3610561565b90506106ef82826106a8565b919050565b600067ffffffffffffffff82111561070f5761070e610679565b5b61071882610668565b9050602081019050919050565b82818337600083830152505050565b6000610747610742846106f4565b6106d9565b90508281526020810184848401111561076357610762610663565b5b61076e848285610725565b509392505050565b600082601f83011261078b5761078a61065e565b5b813561079b848260208601610734565b91505092915050565b600080604083850312156107bb576107ba61056b565b5b60006107c985828601610596565b925050602083013567ffffffffffffffff8111156107ea576107e9610570565b5b6107f685828601610776565b9150509250929050565b61080981610622565b811461081457600080fd5b50565b60008135905061082681610800565b92915050565b6000602082840312156108425761084161056b565b5b600061085084828501610817565b91505092915050565b600082825260208201905092915050565b7f496e73756666696369656e74204554482073656e740000000000000000000000600082015250565b60006108a0601583610859565b91506108ab8261086a565b602082019050919050565b600060208201905081810360008301526108cf81610893565b9050919050565b7f4e487b7100000000000000000000000000000000000000000000000000000000600052601260045260246000fd5b7f4e487b7100000000000000000000000000000000000000000000000000000000600052601160045260246000fd5b600061093f82610575565b915061094a83610575565b92508261095a576109596108d6565b5b828204905092915050565b600061097082610575565b915061097b83610575565b925082820261098981610575565b915082820484148315176109a05761099f610905565b5b5092915050565b60006109b282610575565b91506109bd83610575565b92508282019050808211156109d5576109d4610905565b5b92915050565b7f4f776e61626c653a206e6577206f776e657220697320746865207a65726f206160008201527f6464726573730000000000000000000000000000000000000000000000000000602082015250565b6000610a37602683610859565b9150610a42826109db565b604082019050919050565b60006020820190508181036000830152610a6681610a2a565b9050919050565b7f4f776e61626c653a2063616c6c6572206973206e6f7420746865206f776e6572600082015250565b6000610aa3602083610859565b9150610aae82610a6d565b602082019050919050565b60006020820190508181036000830152610ad281610a96565b905091905056fea264697066735822122056c7887b9c1b55d97779e95bbf038118faa4a3331363415bb90ea71b82a66c9e64736f6c63430008120033",
  "linkReferences": {},
  "deployedLinkReferences": {}
}