{
  "_format": "hh-sol-artifact-1",
  "contractName": "Research",
  "sourceName": "contracts/Research.sol",
  "abi": [
    {
      "inputs": [],
      "stateMutability": "payable",
      "type": "constructor"
    },
    {
      "anonymous": false,
      "inputs": [
        {
          "indexed": true,
          "internalType": "address",
          "name": "owner",
          "type": "address"
        },
        {
          "indexed": true,
          "internalType": "address",
          "name": "spender",
          "type": "address"
        },
        {
          "indexed": false,
          "internalType": "uint256",
          "name": "value",
          "type": "uint256"
        }
      ],
      "name": "Approval",
      "type": "event"
    },
    {
      "anonymous": false,
      "inputs": [
        {
          "indexed": true,
          "internalType": "address",
          "name": "from",
          "type": "address"
        },
        {
          "indexed": true,
          "internalType": "address",
          "name": "to",
          "type": "address"
        },
        {
          "indexed": false,
          "internalType": "uint256",
          "name": "value",
          "type": "uint256"
        }
      ],
      "name": "Transfer",
      "type": "event"
    },
    {
      "inputs": [
        {
          "internalType": "address",
          "name": "owner",
          "type": "address"
        },
        {
          "internalType": "address",
          "name": "spender",
          "type": "address"
        }
      ],
      "name": "allowance",
      "outputs": [
        {
          "internalType": "uint256",
          "name": "",
          "type": "uint256"
        }
      ],
      "stateMutability": "view",
      "type": "function"
    },
    {
      "inputs": [
        {
          "internalType": "address",
          "name": "spender",
          "type": "address"
        },
        {
          "internalType": "uint256",
          "name": "amount",
          "type": "uint256"
        }
      ],
      "name": "approve",
      "outputs": [
        {
          "internalType": "bool",
          "name": "",
          "type": "bool"
        }
      ],
      "stateMutability": "nonpayable",
      "type": "function"
    },
    {
      "inputs": [
        {
          "internalType": "address",
          "name": "account",
          "type": "address"
        }
      ],
      "name": "balanceOf",
      "outputs": [
        {
          "internalType": "uint256",
          "name": "",
          "type": "uint256"
        }
      ],
      "stateMutability": "view",
      "type": "function"
    },
    {
      "inputs": [],
      "name": "decimals",
      "outputs": [
        {
          "internalType": "uint8",
          "name": "",
          "type": "uint8"
        }
      ],
      "stateMutability": "view",
      "type": "function"
    },
    {
      "inputs": [
        {
          "internalType": "address",
          "name": "spender",
          "type": "address"
        },
        {
          "internalType": "uint256",
          "name": "subtractedValue",
          "type": "uint256"
        }
      ],
      "name": "decreaseAllowance",
      "outputs": [
        {
          "internalType": "bool",
          "name": "",
          "type": "bool"
        }
      ],
      "stateMutability": "nonpayable",
      "type": "function"
    },
    {
      "inputs": [
        {
          "internalType": "address",
          "name": "spender",
          "type": "address"
        },
        {
          "internalType": "uint256",
          "name": "addedValue",
          "type": "uint256"
        }
      ],
      "name": "increaseAllowance",
      "outputs": [
        {
          "internalType": "bool",
          "name": "",
          "type": "bool"
        }
      ],
      "stateMutability": "nonpayable",
      "type": "function"
    },
    {
      "inputs": [],
      "name": "mint",
      "outputs": [],
      "stateMutability": "nonpayable",
      "type": "function"
    },
    {
      "inputs": [],
      "name": "name",
      "outputs": [
        {
          "internalType": "string",
          "name": "",
          "type": "string"
        }
      ],
      "stateMutability": "view",
      "type": "function"
    },
    {
      "inputs": [],
      "name": "owner",
      "outputs": [
        {
          "internalType": "address",
          "name": "",
          "type": "address"
        }
      ],
      "stateMutability": "view",
      "type": "function"
    },
    {
      "inputs": [],
      "name": "symbol",
      "outputs": [
        {
          "internalType": "string",
          "name": "",
          "type": "string"
        }
      ],
      "stateMutability": "view",
      "type": "function"
    },
    {
      "inputs": [],
      "name": "totalSupply",
      "outputs": [
        {
          "internalType": "uint256",
          "name": "",
          "type": "uint256"
        }
      ],
      "stateMutability": "view",
      "type": "function"
    },
    {
      "inputs": [
        {
          "internalType": "address",
          "name": "to",
          "type": "address"
        },
        {
          "internalType": "uint256",
          "name": "amount",
          "type": "uint256"
        }
      ],
      "name": "transfer",
      "outputs": [
        {
          "internalType": "bool",
          "name": "",
          "type": "bool"
        }
      ],
      "stateMutability": "nonpayable",
      "type": "function"
    },
    {
      "inputs": [
        {
          "internalType": "address",
          "name": "from",
          "type": "address"
        },
        {
          "internalType": "address",
          "name": "to",
          "type": "address"
        },
        {
          "internalType": "uint256",
          "name": "amount",
          "type": "uint256"
        }
      ],
      "name": "transferFrom",
      "outputs": [
        {
          "internalType": "bool",
          "name": "",
          "type": "bool"
        }
      ],
      "stateMutability": "nonpayable",
      "type": "function"
    }
  ],
  "bytecode": "0x60806040526040518060400160405280600e81526020017f526573656172636820546f6b656e0000000000000000000000000000000000008152506040518060400160405280600281526020017f5254000000000000000000000000000000000000000000000000000000000000815250816003908162000081919062000357565b50806004908162000093919062000357565b50505033600560006101000a81548173ffffffffffffffffffffffffffffffffffffffff021916908373ffffffffffffffffffffffffffffffffffffffff1602179055506200043e565b600081519050919050565b7f4e487b7100000000000000000000000000000000000000000000000000000000600052604160045260246000fd5b7f4e487b7100000000000000000000000000000000000000000000000000000000600052602260045260246000fd5b600060028204905060018216806200015f57607f821691505b60208210810362000175576200017462000117565b5b50919050565b60008190508160005260206000209050919050565b60006020601f8301049050919050565b600082821b905092915050565b600060088302620001df7fffffffffffffffffffffffffffffffffffffffffffffffffffffffffffffffff82620001a0565b620001eb8683620001a0565b95508019841693508086168417925050509392505050565b6000819050919050565b6000819050919050565b600062000238620002326200022c8462000203565b6200020d565b62000203565b9050919050565b6000819050919050565b620002548362000217565b6200026c62000263826200023f565b848454620001ad565b825550505050565b600090565b6200028362000274565b6200029081848462000249565b505050565b5b81811015620002b857620002ac60008262000279565b60018101905062000296565b5050565b601f8211156200030757620002d1816200017b565b620002dc8462000190565b81016020851015620002ec578190505b62000304620002fb8562000190565b83018262000295565b50505b505050565b600082821c905092915050565b60006200032c600019846008026200030c565b1980831691505092915050565b600062000347838362000319565b9150826002028217905092915050565b6200036282620000dd565b67ffffffffffffffff8111156200037e576200037d620000e8565b5b6200038a825462000146565b62000397828285620002bc565b600060209050601f831160018114620003cf5760008415620003ba578287015190505b620003c6858262000339565b86555062000436565b601f198416620003df866200017b565b60005b828110156200040957848901518255600182019150602085019450602081019050620003e2565b8683101562000429578489015162000425601f89168262000319565b8355505b6001600288020188555050505b505050505050565b61149c806200044e6000396000f3fe608060405234801561001057600080fd5b50600436106100cf5760003560e01c8063395093511161008c57806395d89b411161006657806395d89b4114610216578063a457c2d714610234578063a9059cbb14610264578063dd62ed3e14610294576100cf565b8063395093511461019857806370a08231146101c85780638da5cb5b146101f8576100cf565b806306fdde03146100d4578063095ea7b3146100f25780631249c58b1461012257806318160ddd1461012c57806323b872dd1461014a578063313ce5671461017a575b600080fd5b6100dc6102c4565b6040516100e99190610ce3565b60405180910390f35b61010c60048036038101906101079190610d9e565b610356565b6040516101199190610df9565b60405180910390f35b61012a610379565b005b610134610386565b6040516101419190610e23565b60405180910390f35b610164600480360381019061015f9190610e3e565b610390565b6040516101719190610df9565b60405180910390f35b6101826103bf565b60405161018f9190610ead565b60405180910390f35b6101b260048036038101906101ad9190610d9e565b6103c8565b6040516101bf9190610df9565b60405180910390f35b6101e260048036038101906101dd9190610ec8565b6103ff565b6040516101ef9190610e23565b60405180910390f35b610200610447565b60405161020d9190610f04565b60405180910390f35b61021e61046d565b60405161022b9190610ce3565b60405180910390f35b61024e60048036038101906102499190610d9e565b6104ff565b60405161025b9190610df9565b60405180910390f35b61027e60048036038101906102799190610d9e565b610576565b60405161028b9190610df9565b60405180910390f35b6102ae60048036038101906102a99190610f1f565b610599565b6040516102bb9190610e23565b60405180910390f35b6060600380546102d390610f8e565b80601f01602080910402602001604051908101604052809291908181526020018280546102ff90610f8e565b801561034c5780601f106103215761010080835404028352916020019161034c565b820191906000526020600020905b81548152906001019060200180831161032f57829003601f168201915b5050505050905090565b600080610361610620565b905061036e818585610628565b600191505092915050565b61038433600a6107f1565b565b6000600254905090565b60008061039b610620565b90506103a8858285610947565b6103b38585856109d3565b60019150509392505050565b60006012905090565b6000806103d3610620565b90506103f48185856103e58589610599565b6103ef9190610fee565b610628565b600191505092915050565b60008060008373ffffffffffffffffffffffffffffffffffffffff1673ffffffffffffffffffffffffffffffffffffffff168152602001908152602001600020549050919050565b600560009054906101000a900473ffffffffffffffffffffffffffffffffffffffff1681565b60606004805461047c90610f8e565b80601f01602080910402602001604051908101604052809291908181526020018280546104a890610f8e565b80156104f55780601f106104ca576101008083540402835291602001916104f5565b820191906000526020600020905b8154815290600101906020018083116104d857829003601f168201915b5050505050905090565b60008061050a610620565b905060006105188286610599565b90508381101561055d576040517f08c379a000000000000000000000000000000000000000000000000000000000815260040161055490611094565b60405180910390fd5b61056a8286868403610628565b60019250505092915050565b600080610581610620565b905061058e8185856109d3565b600191505092915050565b6000600160008473ffffffffffffffffffffffffffffffffffffffff1673ffffffffffffffffffffffffffffffffffffffff16815260200190815260200160002060008373ffffffffffffffffffffffffffffffffffffffff1673ffffffffffffffffffffffffffffffffffffffff16815260200190815260200160002054905092915050565b600033905090565b600073ffffffffffffffffffffffffffffffffffffffff168373ffffffffffffffffffffffffffffffffffffffff1603610697576040517f08c379a000000000000000000000000000000000000000000000000000000000815260040161068e90611126565b60405180910390fd5b600073ffffffffffffffffffffffffffffffffffffffff168273ffffffffffffffffffffffffffffffffffffffff1603610706576040517f08c379a00000000000000000000000000000000000000000000000000000000081526004016106fd906111b8565b60405180910390fd5b80600160008573ffffffffffffffffffffffffffffffffffffffff1673ffffffffffffffffffffffffffffffffffffffff16815260200190815260200160002060008473ffffffffffffffffffffffffffffffffffffffff1673ffffffffffffffffffffffffffffffffffffffff168152602001908152602001600020819055508173ffffffffffffffffffffffffffffffffffffffff168373ffffffffffffffffffffffffffffffffffffffff167f8c5be1e5ebec7d5bd14f71427d1e84f3dd0314c0f7b2291e5b200ac8c7c3b925836040516107e49190610e23565b60405180910390a3505050565b600073ffffffffffffffffffffffffffffffffffffffff168273ffffffffffffffffffffffffffffffffffffffff1603610860576040517f08c379a000000000000000000000000000000000000000000000000000000000815260040161085790611224565b60405180910390fd5b61086c60008383610c49565b806002600082825461087e9190610fee565b92505081905550806000808473ffffffffffffffffffffffffffffffffffffffff1673ffffffffffffffffffffffffffffffffffffffff168152602001908152602001600020600082825401925050819055508173ffffffffffffffffffffffffffffffffffffffff16600073ffffffffffffffffffffffffffffffffffffffff167fddf252ad1be2c89b69c2b068fc378daa952ba7f163c4a11628f55a4df523b3ef8360405161092f9190610e23565b60405180910390a361094360008383610c4e565b5050565b60006109538484610599565b90507fffffffffffffffffffffffffffffffffffffffffffffffffffffffffffffffff81146109cd57818110156109bf576040517f08c379a00000000000000000000000000000000000000000000000000000000081526004016109b690611290565b60405180910390fd5b6109cc8484848403610628565b5b50505050565b600073ffffffffffffffffffffffffffffffffffffffff168373ffffffffffffffffffffffffffffffffffffffff1603610a42576040517f08c379a0000000000000000000000000000000000000000000000000000000008152600401610a3990611322565b60405180910390fd5b600073ffffffffffffffffffffffffffffffffffffffff168273ffffffffffffffffffffffffffffffffffffffff1603610ab1576040517f08c379a0000000000000000000000000000000000000000000000000000000008152600401610aa8906113b4565b60405180910390fd5b610abc838383610c49565b60008060008573ffffffffffffffffffffffffffffffffffffffff1673ffffffffffffffffffffffffffffffffffffffff16815260200190815260200160002054905081811015610b42576040517f08c379a0000000000000000000000000000000000000000000000000000000008152600401610b3990611446565b60405180910390fd5b8181036000808673ffffffffffffffffffffffffffffffffffffffff1673ffffffffffffffffffffffffffffffffffffffff16815260200190815260200160002081905550816000808573ffffffffffffffffffffffffffffffffffffffff1673ffffffffffffffffffffffffffffffffffffffff168152602001908152602001600020600082825401925050819055508273ffffffffffffffffffffffffffffffffffffffff168473ffffffffffffffffffffffffffffffffffffffff167fddf252ad1be2c89b69c2b068fc378daa952ba7f163c4a11628f55a4df523b3ef84604051610c309190610e23565b60405180910390a3610c43848484610c4e565b50505050565b505050565b505050565b600081519050919050565b600082825260208201905092915050565b60005b83811015610c8d578082015181840152602081019050610c72565b60008484015250505050565b6000601f19601f8301169050919050565b6000610cb582610c53565b610cbf8185610c5e565b9350610ccf818560208601610c6f565b610cd881610c99565b840191505092915050565b60006020820190508181036000830152610cfd8184610caa565b905092915050565b600080fd5b600073ffffffffffffffffffffffffffffffffffffffff82169050919050565b6000610d3582610d0a565b9050919050565b610d4581610d2a565b8114610d5057600080fd5b50565b600081359050610d6281610d3c565b92915050565b6000819050919050565b610d7b81610d68565b8114610d8657600080fd5b50565b600081359050610d9881610d72565b92915050565b60008060408385031215610db557610db4610d05565b5b6000610dc385828601610d53565b9250506020610dd485828601610d89565b9150509250929050565b60008115159050919050565b610df381610dde565b82525050565b6000602082019050610e0e6000830184610dea565b92915050565b610e1d81610d68565b82525050565b6000602082019050610e386000830184610e14565b92915050565b600080600060608486031215610e5757610e56610d05565b5b6000610e6586828701610d53565b9350506020610e7686828701610d53565b9250506040610e8786828701610d89565b9150509250925092565b600060ff82169050919050565b610ea781610e91565b82525050565b6000602082019050610ec26000830184610e9e565b92915050565b600060208284031215610ede57610edd610d05565b5b6000610eec84828501610d53565b91505092915050565b610efe81610d2a565b82525050565b6000602082019050610f196000830184610ef5565b92915050565b60008060408385031215610f3657610f35610d05565b5b6000610f4485828601610d53565b9250506020610f5585828601610d53565b9150509250929050565b7f4e487b7100000000000000000000000000000000000000000000000000000000600052602260045260246000fd5b60006002820490506001821680610fa657607f821691505b602082108103610fb957610fb8610f5f565b5b50919050565b7f4e487b7100000000000000000000000000000000000000000000000000000000600052601160045260246000fd5b6000610ff982610d68565b915061100483610d68565b925082820190508082111561101c5761101b610fbf565b5b92915050565b7f45524332303a2064656372656173656420616c6c6f77616e63652062656c6f7760008201527f207a65726f000000000000000000000000000000000000000000000000000000602082015250565b600061107e602583610c5e565b915061108982611022565b604082019050919050565b600060208201905081810360008301526110ad81611071565b9050919050565b7f45524332303a20617070726f76652066726f6d20746865207a65726f2061646460008201527f7265737300000000000000000000000000000000000000000000000000000000602082015250565b6000611110602483610c5e565b915061111b826110b4565b604082019050919050565b6000602082019050818103600083015261113f81611103565b9050919050565b7f45524332303a20617070726f766520746f20746865207a65726f20616464726560008201527f7373000000000000000000000000000000000000000000000000000000000000602082015250565b60006111a2602283610c5e565b91506111ad82611146565b604082019050919050565b600060208201905081810360008301526111d181611195565b9050919050565b7f45524332303a206d696e7420746f20746865207a65726f206164647265737300600082015250565b600061120e601f83610c5e565b9150611219826111d8565b602082019050919050565b6000602082019050818103600083015261123d81611201565b9050919050565b7f45524332303a20696e73756666696369656e7420616c6c6f77616e6365000000600082015250565b600061127a601d83610c5e565b915061128582611244565b602082019050919050565b600060208201905081810360008301526112a98161126d565b9050919050565b7f45524332303a207472616e736665722066726f6d20746865207a65726f20616460008201527f6472657373000000000000000000000000000000000000000000000000000000602082015250565b600061130c602583610c5e565b9150611317826112b0565b604082019050919050565b6000602082019050818103600083015261133b816112ff565b9050919050565b7f45524332303a207472616e7366657220746f20746865207a65726f206164647260008201527f6573730000000000000000000000000000000000000000000000000000000000602082015250565b600061139e602383610c5e565b91506113a982611342565b604082019050919050565b600060208201905081810360008301526113cd81611391565b9050919050565b7f45524332303a207472616e7366657220616d6f756e742065786365656473206260008201527f616c616e63650000000000000000000000000000000000000000000000000000602082015250565b6000611430602683610c5e565b915061143b826113d4565b604082019050919050565b6000602082019050818103600083015261145f81611423565b905091905056fea2646970667358221220021c30890cfaecb2d25454699042b1e1f876cb1126045e0b018a8c1d80bf45f164736f6c63430008120033",
  "linkReferences": {},
  "deployedLinkReferences": {}
}